{"abi":[{"type":"constructor","inputs":[{"name":"initialSupply","type":"uint256","internalType":"uint256"}],"stateMutability":"nonpayable"},{"type":"function","name":"allowance","inputs":[{"name":"owner","type":"address","internalType":"address"},{"name":"spender","type":"address","internalType":"address"}],"outputs":[{"name":"","type":"uint256","internalType":"uint256"}],"stateMutability":"view"},{"type":"function","name":"approve","inputs":[{"name":"spender","type":"address","internalType":"address"},{"name":"value","type":"uint256","internalType":"uint256"}],"outputs":[{"name":"","type":"bool","internalType":"bool"}],"stateMutability":"nonpayable"},{"type":"function","name":"balanceOf","inputs":[{"name":"account","type":"address","internalType":"address"}],"outputs":[{"name":"","type":"uint256","internalType":"uint256"}],"stateMutability":"view"},{"type":"function","name":"burn","inputs":[{"name":"from","type":"address","internalType":"address"},{"name":"amount","type":"uint256","internalType":"uint256"}],"outputs":[],"stateMutability":"nonpayable"},{"type":"function","name":"checkBalance","inputs":[{"name":"account","type":"address","internalType":"address"}],"outputs":[{"name":"","type":"uint256","internalType":"uint256"}],"stateMutability":"view"},{"type":"function","name":"decimals","inputs":[],"outputs":[{"name":"","type":"uint8","internalType":"uint8"}],"stateMutability":"view"},{"type":"function","name":"mint","inputs":[{"name":"to","type":"address","internalType":"address"},{"name":"amount","type":"uint256","internalType":"uint256"}],"outputs":[],"stateMutability":"nonpayable"},{"type":"function","name":"name","inputs":[],"outputs":[{"name":"","type":"string","internalType":"string"}],"stateMutability":"view"},{"type":"function","name":"owner","inputs":[],"outputs":[{"name":"","type":"address","internalType":"address"}],"stateMutability":"view"},{"type":"function","name":"renounceOwnership","inputs":[],"outputs":[],"stateMutability":"nonpayable"},{"type":"function","name":"symbol","inputs":[],"outputs":[{"name":"","type":"string","internalType":"string"}],"stateMutability":"view"},{"type":"function","name":"totalSupply","inputs":[],"outputs":[{"name":"","type":"uint256","internalType":"uint256"}],"stateMutability":"view"},{"type":"function","name":"transfer","inputs":[{"name":"to","type":"address","internalType":"address"},{"name":"value","type":"uint256","internalType":"uint256"}],"outputs":[{"name":"","type":"bool","internalType":"bool"}],"stateMutability":"nonpayable"},{"type":"function","name":"transferFrom","inputs":[{"name":"from","type":"address","internalType":"address"},{"name":"to","type":"address","internalType":"address"},{"name":"value","type":"uint256","internalType":"uint256"}],"outputs":[{"name":"","type":"bool","internalType":"bool"}],"stateMutability":"nonpayable"},{"type":"function","name":"transferOwnership","inputs":[{"name":"newOwner","type":"address","internalType":"address"}],"outputs":[],"stateMutability":"nonpayable"},{"type":"event","name":"Approval","inputs":[{"name":"owner","type":"address","indexed":true,"internalType":"address"},{"name":"spender","type":"address","indexed":true,"internalType":"address"},{"name":"value","type":"uint256","indexed":false,"internalType":"uint256"}],"anonymous":false},{"type":"event","name":"OwnershipTransferred","inputs":[{"name":"previousOwner","type":"address","indexed":true,"internalType":"address"},{"name":"newOwner","type":"address","indexed":true,"internalType":"address"}],"anonymous":false},{"type":"event","name":"Transfer","inputs":[{"name":"from","type":"address","indexed":true,"internalType":"address"},{"name":"to","type":"address","indexed":true,"internalType":"address"},{"name":"value","type":"uint256","indexed":false,"internalType":"uint256"}],"anonymous":false},{"type":"error","name":"ERC20InsufficientAllowance","inputs":[{"name":"spender","type":"address","internalType":"address"},{"name":"allowance","type":"uint256","internalType":"uint256"},{"name":"needed","type":"uint256","internalType":"uint256"}]},{"type":"error","name":"ERC20InsufficientBalance","inputs":[{"name":"sender","type":"address","internalType":"address"},{"name":"balance","type":"uint256","internalType":"uint256"},{"name":"needed","type":"uint256","internalType":"uint256"}]},{"type":"error","name":"ERC20InvalidApprover","inputs":[{"name":"approver","type":"address","internalType":"address"}]},{"type":"error","name":"ERC20InvalidReceiver","inputs":[{"name":"receiver","type":"address","internalType":"address"}]},{"type":"error","name":"ERC20InvalidSender","inputs":[{"name":"sender","type":"address","internalType":"address"}]},{"type":"error","name":"ERC20InvalidSpender","inputs":[{"name":"spender","type":"address","internalType":"address"}]},{"type":"error","name":"OwnableInvalidOwner","inputs":[{"name":"owner","type":"address","internalType":"address"}]},{"type":"error","name":"OwnableUnauthorizedAccount","inputs":[{"name":"account","type":"address","internalType":"address"}]}],"bytecode":{"object":"0x608060405234801562000010575f80fd5b5060405162000d9a38038062000d9a83398101604081905262000033916200029e565b336040518060400160405280600881526020016724a12a2a37b5b2b760c11b8152506040518060400160405280600381526020016212509560ea1b815250816003908162000082919062000354565b50600462000091828262000354565b5050506001600160a01b038116620000c357604051631e4fbdf760e01b81525f60048201526024015b60405180910390fd5b620000ce81620000e2565b50620000db338262000133565b5062000446565b600580546001600160a01b038381166001600160a01b0319831681179093556040519116919082907f8be0079c531659141344cd1fd0a4f28419497f9722a3daafe3b4186f6b6457e0905f90a35050565b6001600160a01b0382166200015e5760405163ec442f0560e01b81525f6004820152602401620000ba565b6200016b5f83836200016f565b5050565b6001600160a01b0383166200019d578060025f82825462000191919062000420565b909155506200020f9050565b6001600160a01b0383165f9081526020819052604090205481811015620001f15760405163391434e360e21b81526001600160a01b03851660048201526024810182905260448101839052606401620000ba565b6001600160a01b0384165f9081526020819052604090209082900390555b6001600160a01b0382166200022d576002805482900390556200024b565b6001600160a01b0382165f9081526020819052604090208054820190555b816001600160a01b0316836001600160a01b03167fddf252ad1be2c89b69c2b068fc378daa952ba7f163c4a11628f55a4df523b3ef836040516200029191815260200190565b60405180910390a3505050565b5f60208284031215620002af575f80fd5b5051919050565b634e487b7160e01b5f52604160045260245ffd5b600181811c90821680620002df57607f821691505b602082108103620002fe57634e487b7160e01b5f52602260045260245ffd5b50919050565b601f8211156200034f57805f5260205f20601f840160051c810160208510156200032b5750805b601f840160051c820191505b818110156200034c575f815560010162000337565b50505b505050565b81516001600160401b03811115620003705762000370620002b6565b6200038881620003818454620002ca565b8462000304565b602080601f831160018114620003be575f8415620003a65750858301515b5f19600386901b1c1916600185901b17855562000418565b5f85815260208120601f198616915b82811015620003ee57888601518255948401946001909101908401620003cd565b50858210156200040c57878501515f19600388901b60f8161c191681555b505060018460011b0185555b505050505050565b808201808211156200044057634e487b7160e01b5f52601160045260245ffd5b92915050565b61094680620004545f395ff3fe608060405234801561000f575f80fd5b50600436106100f0575f3560e01c806370a08231116100935780639dc29fac116100635780639dc29fac146101e4578063a9059cbb146101f7578063dd62ed3e1461020a578063f2fde38b14610242575f80fd5b806370a0823114610191578063715018a6146101b95780638da5cb5b146101c157806395d89b41146101dc575f80fd5b806323b872dd116100ce57806323b872dd14610147578063313ce5671461015a57806340c10f19146101695780635f5152261461017e575f80fd5b806306fdde03146100f4578063095ea7b31461011257806318160ddd14610135575b5f80fd5b6100fc610255565b60405161010991906107a0565b60405180910390f35b610125610120366004610807565b6102e5565b6040519015158152602001610109565b6002545b604051908152602001610109565b61012561015536600461082f565b6102fe565b60405160128152602001610109565b61017c610177366004610807565b610321565b005b61013961018c366004610868565b610337565b61013961019f366004610868565b6001600160a01b03165f9081526020819052604090205490565b61017c610354565b6005546040516001600160a01b039091168152602001610109565b6100fc610367565b61017c6101f2366004610807565b610376565b610125610205366004610807565b610388565b610139610218366004610888565b6001600160a01b039182165f90815260016020908152604080832093909416825291909152205490565b61017c610250366004610868565b610395565b606060038054610264906108b9565b80601f0160208091040260200160405190810160405280929190818152602001828054610290906108b9565b80156102db5780601f106102b2576101008083540402835291602001916102db565b820191905f5260205f20905b8154815290600101906020018083116102be57829003601f168201915b5050505050905090565b5f336102f28185856103d7565b60019150505b92915050565b5f3361030b8582856103e9565b610316858585610465565b506001949350505050565b6103296104c2565b61033382826104ef565b5050565b6001600160a01b0381165f908152602081905260408120546102f8565b61035c6104c2565b6103655f610523565b565b606060048054610264906108b9565b61037e6104c2565b6103338282610574565b5f336102f2818585610465565b61039d6104c2565b6001600160a01b0381166103cb57604051631e4fbdf760e01b81525f60048201526024015b60405180910390fd5b6103d481610523565b50565b6103e483838360016105a8565b505050565b6001600160a01b038381165f908152600160209081526040808320938616835292905220545f1981101561045f578181101561045157604051637dc7a0d960e11b81526001600160a01b038416600482015260248101829052604481018390526064016103c2565b61045f84848484035f6105a8565b50505050565b6001600160a01b03831661048e57604051634b637e8f60e11b81525f60048201526024016103c2565b6001600160a01b0382166104b75760405163ec442f0560e01b81525f60048201526024016103c2565b6103e483838361067a565b6005546001600160a01b031633146103655760405163118cdaa760e01b81523360048201526024016103c2565b6001600160a01b0382166105185760405163ec442f0560e01b81525f60048201526024016103c2565b6103335f838361067a565b600580546001600160a01b038381166001600160a01b0319831681179093556040519116919082907f8be0079c531659141344cd1fd0a4f28419497f9722a3daafe3b4186f6b6457e0905f90a35050565b6001600160a01b03821661059d57604051634b637e8f60e11b81525f60048201526024016103c2565b610333825f8361067a565b6001600160a01b0384166105d15760405163e602df0560e01b81525f60048201526024016103c2565b6001600160a01b0383166105fa57604051634a1406b160e11b81525f60048201526024016103c2565b6001600160a01b038085165f908152600160209081526040808320938716835292905220829055801561045f57826001600160a01b0316846001600160a01b03167f8c5be1e5ebec7d5bd14f71427d1e84f3dd0314c0f7b2291e5b200ac8c7c3b9258460405161066c91815260200190565b60405180910390a350505050565b6001600160a01b0383166106a4578060025f82825461069991906108f1565b909155506107149050565b6001600160a01b0383165f90815260208190526040902054818110156106f65760405163391434e360e21b81526001600160a01b038516600482015260248101829052604481018390526064016103c2565b6001600160a01b0384165f9081526020819052604090209082900390555b6001600160a01b0382166107305760028054829003905561074e565b6001600160a01b0382165f9081526020819052604090208054820190555b816001600160a01b0316836001600160a01b03167fddf252ad1be2c89b69c2b068fc378daa952ba7f163c4a11628f55a4df523b3ef8360405161079391815260200190565b60405180910390a3505050565b5f602080835283518060208501525f5b818110156107cc578581018301518582016040015282016107b0565b505f604082860101526040601f19601f8301168501019250505092915050565b80356001600160a01b0381168114610802575f80fd5b919050565b5f8060408385031215610818575f80fd5b610821836107ec565b946020939093013593505050565b5f805f60608486031215610841575f80fd5b61084a846107ec565b9250610858602085016107ec565b9150604084013590509250925092565b5f60208284031215610878575f80fd5b610881826107ec565b9392505050565b5f8060408385031215610899575f80fd5b6108a2836107ec565b91506108b0602084016107ec565b90509250929050565b600181811c908216806108cd57607f821691505b6020821081036108eb57634e487b7160e01b5f52602260045260245ffd5b50919050565b808201808211156102f857634e487b7160e01b5f52601160045260245ffdfea2646970667358221220c52f4ca8afe261046586db42aeb747baee01d7d28b6d78ede34f459724424f5e64736f6c63430008170033","linkReferences":{}},"methodIdentifiers":{"allowance(address,address)":"dd62ed3e","approve(address,uint256)":"095ea7b3","balanceOf(address)":"70a08231","burn(address,uint256)":"9dc29fac","checkBalance(address)":"5f515226","decimals()":"313ce567","mint(address,uint256)":"40c10f19","name()":"06fdde03","owner()":"8da5cb5b","renounceOwnership()":"715018a6","symbol()":"95d89b41","totalSupply()":"18160ddd","transfer(address,uint256)":"a9059cbb","transferFrom(address,address,uint256)":"23b872dd","transferOwnership(address)":"f2fde38b"},"id":7}